:020000040800F2
:10000000C029002045010008491700084B170008C7
:100010004D1700084F170008511700080000000096
:10002000000000000000000000000000531700085E
:10003000551700080000000057170008591700085E
:100040005F0100085F0100085F0100085F01000810
:100050005F0100085F0100085F0100085F01000800
:100060005F0100085F0100085F0100085F010008F0
:100070005F0100085F0100085F0100085F010008E0
:100080005F0100085F0100085F0100085F010008D0
:100090005F0100085F0100085F0100085F010008C0
:1000A0005F0100085F0100085F0100085F010008B0
:1000B0005F0100085F0100085F0100085F010008A0
:1000C0005F0100085F0100085F0100085F01000890
:1000D0005F0100085F0100085F0100085F01000880
:1000E0005F0100085F0100085F0100085F01000870
:1000F0005F0100085F0100085F0100085F01000860
:100100005F0100085B1700085F0100085F0100083D
:100110005F0100085F0100085F0100085F0100083F
:100120005F0100085F0100085F0100085F0100082F
:10013000DFF80CD005F03AFE00480047091300082C
:10014000C02900200648804706480047FEE7FEE732
:10015000FEE7FEE7FEE7FEE7FEE7FEE7FEE7FEE777
:1001600011020008310100080CB500220192009232
:100170005248016841F4803101604FF4A063016886
:1001800001F4003100910199491C0191009911B9C4
:1001900001999942F3D10168890302D501210091A7
:1001A00000E000920099012930D145490A6842F0E7
:1001B00010020A600A6822F003020A600A6842F02C
:1001C00002020A604168416041684160416841F44F
:1001D00080614160416821F47C114160416841F4D3
:1001E000E8114160016841F0807101600168890196
:1001F000FCD5416821F003014160416841F00201F2
:1002000041604168C1F381010229FAD10CBDABE71D
:1002100010B52A48016841F0010101604168294A8E
:10022000114041600168284A11400160016821F4D1
:1002300080210160416821F4FE0141604FF41F01FB
:100240008160FFF7E4FF21494FF00060086010BDB6
:1002500010B51A4A506800F00C011D4B1D480029CA
:100260000ED004290ED008290ED003605168194A17
:10027000C1F30311121D515C0268CA40026010BD37
:100280000360F3E70360F1E7516801F4701153680C
:1002900003F48033022404EB914133B153689B0390
:1002A00007D50D4B59430160E0E70B4B5943016003
:1002B000DCE7074B59430160D8E70000001002401B
:1002C000002002400000FFF8FFFFF6FE08ED00E00E
:1002D00000127A000000002000093D002A4908436E
:1002E0002A490860704770B50F23C278012601784B
:1002F000002A1ED0254A126802F4E062C2F5E062CC
:10030000120AC2F10404D3404578A54082781A400D
:100310002A43120101F1E02181F80024007800F065
:100320001F018E404009800000F1E020C0F800610C
:1003300070BD01F01F0086404809800000F1E020F8
:10034000C0F8806170BD124A114001430F48001F80
:10035000016070470D4A121D002903D01168014346
:100360001160704711688143116070474FF0E021C0
:10037000042804D0086920F0040008617047086967
:1003800040F00400086170470000FA050CED00E041
:1003900080FFFF1F01684FF6FE72114001600021CF
:1003A000016041608160C1607249724A08399042BF
:1003B00004D1486840F00F00486070476D4A14321D
:1003C000904204D1486840F0F00048607047694AA4
:1003D0002832904204D1486840F470604860704709
:1003E000644A3C32904204D1486840F4704048600E
:1003F0007047604A5032904204D1486840F47020FF
:10040000486070475B4A6432904204D1486840F4C7
:10041000700048607047574A7832904204D148686B
:1004200040F0706048607047534A111F904204D1F9
:10043000086840F00F00086070474F4A143290423D
:1004400004D1086840F0F000086070474A4A28323A
:10045000904204D1086840F4706008607047464AD2
:100460003C32904204D1086840F470400860704704
:10047000414A50329042FAD1086840F47020086036
:10048000704730B5026847F6F0739A430C6A8B6880
:100490002343D1E904452C4323438C692343CC698E
:1004A00023434C6A23438C6A234313430360CA6883
:1004B00042600A6882604968C16030BD0021016005
:1004C00041608160C160016141618161C16101621E
:1004D000416281627047002904D0016841F0010146
:1004E0000160704701684FF6FE721140016070476D
:1004F000002A03D002680A430260704702688A43F8
:100500000260704741607047406880B270470246A1
:100510000020D10003D518490839096802E01549BF
:1005200008390968114200D001207047C10003D585
:100530001149091F086070470E4908394860704723
:1005400002460020D10003D50B490839096802E0B2
:10055000084908390968114200D001207047C100DC
:1005600003D50549091F08607047024908394860EA
:1005700070470000080002400804024010B59C4982
:10058000884209D10121042000F07DFA0021BDE854
:100590001040042000F077BA9649884209D1012121
:1005A000082000F070FA0021BDE81040082000F09B
:1005B0006ABA9149884209D10121102000F063FAFA
:1005C0000021BDE81040102000F05DBA8B49884240
:1005D00009D10121202000F056FA0021BDE8104089
:1005E000202000F050BA8649884209D101214020DC
:1005F00000F049FA0021BDE81040402000F043BA65
:100600008049884209D10121802000F03CFA002174
:10061000BDE81040802000F036BA7B4988420AD1FC
:1006200084150121204600F02EFA2046BDE8104036
:10063000002100F028BA10BD10B50121084600F0D5
:1006400022FA0021BDE81040012000F01CBA2DE97B
:10065000F0410022CC7804F00F03E40601D58C7839
:1006600023430C784FF00F0714F0FF0F4FF0010CED
:100670001CD005680CFA02F40E882640A64211D15F
:10068000960007FA06F825EA080503FA06F848EA8C
:100690000505CE78282E02D0482E02D002E0446113
:1006A00000E00461521C082AE4D305600A88FF2A8E
:1006B0001ED94568002202F108060CFA06F40E88DD
:1006C0002640A64210D1960007FA06F825EA08054A
:1006D00003FA06F848EA0505CE78282E00D14461D1
:1006E000CE78482E00D10461521C082AE3D345601D
:1006F000BDE8F0814FF6FF71018002218170042175
:10070000C17070470246002092680A4200D0012062
:100710007047806880B2704702460020D2680A4263
:1007200000D001207047C06880B2704701617047F7
:1007300041617047002A01D00161704741617047F3
:10074000C160704741F48032826181618261816958
:100750008069704710B52D4B1A684FF6807422409F
:1007600042EA00100843186010BD2949C86170476B
:10077000F0B5264C002801DAE36900E06368C0F3B5
:100780000346420D120185B2C0F301579540032F75
:1007900007D0C2020CD50322B240934343F07062EB
:1007A00009E023F07062636823F07063636002E025
:1007B000AB4343F0706201B12A43002801DAE261E1
:1007C000F0BD6260F0BD10B58A07120F0F23934091
:1007D00021F003040D4921448C689C438C608B6894
:1007E000904003438B6010BD0949DC3108607047BD
:1007F00000080140000C01400010014000140140BD
:1008000000180140001C0140002001400000014090
:1008100000002042B448016841F0010101604168D4
:10082000B24A114041600168B14A1140016001685B
:1008300021F480210160416821F4FE0141604FF400
:100840001F0181607047A8490A6822F480320A605B
:100850000A6822F480220A60B0F5803F07D0B0F524
:10086000802F03D1086840F4A02008607047086812
:1008700040F48030086070470346002059099A4AC6
:1008800001290AD002290AD0516A03F01F0201236C
:1008900093400B4200D0012070471168F5E7116AC0
:1008A000F3E718B5002000904FF4A0643120FFF763
:1008B000E3FF0099491C00910099A14201D0002852
:1008C000F4D03120FFF7D8FF08B1012018BD002077
:1008D00018BD854A116821F0F80141EAC000106096
:1008E00070478449086070477F4B5A6822F47C1235
:1008F00008431043586070477E49086670477A4A3B
:10090000516821F003010143516070477648406807
:1009100000F00C007047744A516821F0F001014367
:1009200051607047704A516821F4E06101435160A1
:1009300070476D4A516821F4605141EAC00050602F
:100940007047694A002903D0517A014351727047B8
:10095000517A8143517270476649D83108607047B7
:10096000614A516821F440410143516070475E493A
:10097000002220310A7001F82029012805D004281E
:1009800002D1052081F820007047012081F8200065
:10099000704759490860704753490A6A02430A621E
:1009A0007047554944390860704710B54E4A516840
:1009B00001F00C01514B002927D0042927D0082928
:1009C00027D00360516801F0F00109094C4B5C5CD1
:1009D0000168E1404160546804F4E064240A1C5D4D
:1009E00021FA04F48460546804F46054E40A1B5D42
:1009F000D940C160526802F44042920B404B1B1F29
:100A00009A5CB1FBF2F1016110BD0360DAE70360AB
:100A1000D8E7516801F47011536803F4803302245D
:100A200004EB914133B153689B0307D5354B5943D0
:100A30000160C7E7334B59430160C3E72F4B59436C
:100A40000160BFE7284A002903D051690143516181
:100A500070475169814351617047234A002903D08F
:100A60009169014391617047916981439161704738
:100A70001D4A002903D0D1690143D1617047D16972
:100A80008143D1617047184A002903D0D1680143DE
:100A9000D1607047D1688143D1607047124A002904
:100AA00003D01169014311617047116981431161DC
:100AB000704711494039086070470E49C864704753
:100AC0000949C87170470848416A41F08071416224
:100AD000704701460020044A92680A4200D0012073
:100AE0007047014988727047001002400000FFF80B
:100AF000FFFFF6FE000042428004424200127A00EC
:100B00001800002000093D00664800210160416096
:100B10008160C16041628162C162634A8263C16374
:100B2000704730B55F4B596847F6FF629143027DCD
:100B30008468C568224344682C43224304680069E2
:100B4000224302430A435A6030BD0021017501600F
:100B500041608160C160016170475449086070471D
:100B600050490A6822F003020A600A6802430A60D8
:100B700070474C48006800F003007047494A00295C
:100B800003D0D16B0143D1637047D16B8143D163F3
:100B9000704747490860704710B5424902688A604B
:100BA000CA686FF30A02D0E901342343D0E9034055
:100BB000044323431343CB6010BD00210160416017
:100BC0008160C1600161704736480069C0B27047FA
:100BD00008B534491431084400900098006808BDF5
:100BE00010B5304902684A6242688A62CA6A22F0D5
:100BF000F702D0E902342343D0E9044004432343FD
:100C00001343CB6210BD4FF0FF3101600021416002
:100C10008160C1600161416170472248006B70478B
:100C200020488030006870471E4980310860704756
:100C30001C48806C70471E491431086070471C497D
:100C40001831086070471A491C310860704718490C
:100C50002031086070471749086070471549091D21
:100C600008607047012181431248083001607047D5
:100C700010490C310860704701460020094A526B48
:100C80000A4200D001207047064988637047014638
:100C90000020044A526B0A4200D0012070470149EB
:100CA0008863704700800140FF07C000A000304209
:100CB0008C053042AC01304210B5A94988420AD1B6
:100CC000841401212046FFF7DEFE2046BDE81040D7
:100CD0000021FFF7D8BEA34988420AD1041401219C
:100CE0002046FFF7DBFE2046BDE810400021FFF75D
:100CF000D5BE9D4988420AD1C41301212046FFF781
:100D0000CDFE2046BDE810400021FFF7C7BE10BD54
:100D100030B5028802F441530A884C88CD882243BA
:100D20008C882C4322430C8922434C8922438C8992
:100D30002243CC8922431A430280828B22F4006230
:100D40008283098A018230BDF0B585B005460C4624
:100D5000022000210126AA8B4FF240031A40AA83E9
:100D600002222A84AF8BA268022A21D0A08800B177
:100D700002266846FFF719FE0098E188B1F5007F6A
:100D80002CD07101B0FBF1F000EB8000A1684000B5
:100D9000B0FBF1F0401D80B20A21B0FBF1F000F091
:100DA0000101401AC0F34F004FF6FF7202EA012121
:100DB000821EFE2A01D302200021E288084302435A
:100DC0002A8420886188A2890843A18811430843A6
:100DD000384340F40060A88305B0F0BD000A00EB82
:100DE0008000A1684000B0FBF1F0401D80B2D3E765
:100DF0000021018041808180C18001814181818108
:100E0000C1810721018270470021018041808180DA
:100E1000C1800222826081817047002904D001884C
:100E200041F0400101807047018821F040010180BC
:100E30007047002904D0818B41F480618183704721
:100E4000818B21F4806181837047090901238B40E4
:100E500099B2002A03D082880A4382807047828830
:100E60008A4382807047002A03D082880A438280A6
:100E7000704782888A438280704781817047808969
:100E80007047A1F57E42FF3A04D0018841F4807199
:100E900001807047018821F480710180704700292A
:100EA00004D0818841F0040181807047818821F05D
:100EB000040181807047028822F400620280028867
:100EC0000A4302807047018841F4805101807047D5
:100ED000002904D0018841F4005101807047018845
:100EE00021F4005101807047012901D0008B704727
:100EF000808A7047008A7047B1F5804F04D001881E
:100F000021F4804101807047018841F480410180D3
:100F100070470246002012890A4200D00120704723
:100F2000C9430181704730B50246002001F00F032C
:100F3000012505FA03F4A3B2090905FA01F4A4B2E4
:100F40009188214012891A4202D0002900D0012044
:100F500030BD01F00F0201219140C943018170476A
:100F60000030014000380040003C004010B5E1492D
:100F700088420AD101218C032046FFF784FD2046D8
:100F8000BDE810400021FFF77EBDDB4988420AD151
:100F900001214C042046FFF781FD2046BDE81040AA
:100FA0000021FFF77BBDD54988420AD101218C047D
:100FB0002046FFF773FD2046BDE810400021FFF7F3
:100FC0006DBDCF4988420AD10121CC042046FFF7EC
:100FD00065FD2046BDE810400021FFF75FBDC9490F
:100FE00088420AD101210C052046FFF757FD204613
:100FF000BDE810400021FFF751BD10BD30B585B0F0
:1010000004460D46208A4CF6FF710840E9880143EA
:101010002182A0894EF6F3110840A9882A8911433C
:101020006A8902431143A181A08A4FF6FF4108401B
:10103000A9890143A1826846FFF7B7FCAD48844205
:1010400001D1039800E00298A189090408D500EBBA
:10105000C00101EB001029684900B0FBF1F007E086
:1010600000EBC00101EB001029688900B0FBF1F032
:101070006422B0FBF2F109010B096FF018056B4314
:1010800000EB8300A3891D044FF0320307D503EB67
:10109000C000B0FBF2F000F00700084306E003EBED
:1010A0000010B0FBF2F000F00F000843208105B003
:1010B00030BD4FF41651016000218180C180018153
:1010C0000C2242818181704710B5038A4FF2FF02E2
:1010D00013400A884C8822438C88C9880C432243D9
:1010E0001A43028210BD0021018041808180C180AD
:1010F0007047002904D0818941F4005181817047F3
:10110000818921F400518181704710B540F66A133E
:10111000C1F3421301F01F040121A140012B07D0AC
:10112000022B07D014303AB102680A43026010BDA6
:101130000C30F8E71030F6E702688A43026010BD11
:10114000002A03D0828A0A4382827047828A8A43B5
:1011500082827047028A22F00F020282028A0A43C8
:1011600002827047828922F40062828182890A4366
:1011700082817047002904D0818941F00201818178
:101180007047818921F0020181817047028A22F033
:1011900020020282028A0A4302827047002904D098
:1011A000018A41F4804101827047018A21F4804123
:1011B00001827047C1F30801818070478088C0F3C5
:1011C00008007047818941F0010181817047028BDD
:1011D000D2B20283028B42EA012101837047028B63
:1011E00002F47F420283028B0A4302837047002984
:1011F00004D0818A41F0200181827047818A21F0E8
:10120000200181827047002904D0818A41F01001B9
:1012100081827047818A21F0100181827047002904
:1012200004D0818A41F0080181827047818A21F0CF
:10123000080181827047002904D0818941F400416E
:10124000818170478189C1F30E0181817047002936
:1012500004D0818A41F4006181827047818A21F43F
:10126000006181827047828A22F004028282828A2F
:101270000A4382827047002904D0818A41F002012A
:1012800081827047818A21F0020181827047024683
:10129000002012880A4200D0012070478A05C94305
:1012A0000180704770B5002440F66A12C1F3421302
:1012B00001F01F05012606FA05F2012B0CD0022BC6
:1012C0000DD0838A1340090A8E40008830400BB14C
:1012D00000B10124204670BD83891340F3E7038ADF
:1012E0001340F0E740F66A120A0A01219140C9430F
:1012F0000180704700380140004400400048004031
:10130000004C00400050004000F02AFA5D4C2025BF
:1013100025600126266004F104090227C9F800703F
:1013200000F04EFA58A004F053FD012261A162487A
:1013300003F065F9DFF8848188F800000D2809D0F2
:1013400000282CD001465EA004F042FD65A004F008
:101350003FFDFEE76CA004F03BFD0022114655A0C6
:1013600004F00BF888F8000038B1C9F80050266086
:10137000276070A004F02CFDFEE774A004F028FDA7
:1013800001224CA1002003F03AF988F80000012264
:1013900048A1494803F033F988F8000002E073A03F
:1013A00004F016FD7BA004F013FD0A2284A18A48F4
:1013B00003F04AF988F80000002822D0C9F800504C
:1013C0002660276085A004F003FD8BA004F000FDDB
:1013D00001227BA1804803F037F988F8000000283B
:1013E0002FD0C9F80050266027608DA004F0F0FCD3
:1013F000794803F0C6FB01222EA1002003F0FFF87C
:10140000FEE78DA004F0E4FC2C4B40221B1D191DAF
:10141000714803F087FA88F8000038B1014696A0B9
:1014200004F0D6FC6C4803F0ACFBCEE798A0D8F8EB
:10143000041004F0CDFC21499EA0083104F0C8FC42
:10144000F0E72560C9F800602760A2A004F0C0FCA6
:101450001A4B4FF480621B1DA3495F4803F0A4F9A7
:1014600088F8000020B10146A0A004F0B1FCBFE75D
:10147000A4A0D8F8041004F0ABFC9B49AAA004F087
:10148000A7FCB5E7100C01400D0A2A2A2A2A2A2AAD
:1014900020D5E2CAC7D2BBB8F65344BFA820CEC4F9
:1014A000BCFECFB5CDB3CAB5D1E9202A2A2A2A2A53
:1014B0002A0D0A00303A000098040020280000207D
:1014C000A3A1A3A15344BFA8B9D2D4D8CEC4BCFE13
:1014D000CFB5CDB3CAA7B0DCA1A3282564290D0AD6
:1014E00000000000A3A1A3A1BFC9C4DCD4ADD2F207
:1014F000A3BA5344BFA8B3F5CABCBBAFB2BBB3C910
:10150000B9A6A1A30D0A0000A1B75344BFA8BBB957
:10151000C3BBD3D0CEC4BCFECFB5CDB3A3ACBCB49B
:10152000BDABBDF8D0D0B8F1CABDBBAF2E2E2E0DCD
:101530000A000000A1B6A1B6B8F1CABDBBAFCAA7E8
:10154000B0DCA1A3A1B7A1B70D0A0000A1B7534415
:10155000BFA8D2D1B3C9B9A6B8F1CABDBBAFCEC47A
:10156000BCFECFB5CDB3A1A30D0A0000A1B7CEC478
:10157000BCFECFB5CDB3B9D2D4D8B3C9B9A6A3AC4C
:10158000BFC9D2D4BDF8D0D0B6C1D0B4B2E2CAD4AB
:101590000D0A00000D0A2A2A2A2A2A2A20BCB4BDD4
:1015A000ABBDF8D0D0CEC4BCFED0B4C8EBB2E2CA5A
:1015B000D42E2E2E202A2A2A2A2A2A0D0A0000009A
:1015C000303A4661744673B6C1D0B4B2E2CAD4CEE2
:1015D000C4BCFE2E74787400C8140020A3A1A3A17B
:1015E000B4F2BFAA2FB4B4BDA8CEC4BCFECAA7B083
:1015F000DCA1A30D0A0000002A2A2A2A2A2A20BCDC
:10160000B4BDABBDF8D0D0CEC4BCFEB6C1C8A1B28B
:10161000E2CAD42E2E2E202A2A2A2A2A2A0D0A008D
:10162000A3A1A3A1B4F2BFAACEC4BCFECAA7B0DCDA
:10163000A1A30D0A00000000A1B7B4F2BFAA2FB405
:10164000B4BDA84661744673B6C1D0B4B2E2CAD480
:10165000CEC4BCFE2E747874CEC4BCFEB3C9B9A689
:10166000A3ACCFF2CEC4BCFED0B4C8EBCAFDBEDD85
:10167000A1A30D0A00000000A3A1A3A1CEC4BCFE3B
:10168000D0B4C8EBCAA7B0DCA3BA282564290A00E5
:10169000A1B7CEC4BCFED0B4C8EBB3C9B9A6A3AC45
:1016A000D0B4C8EBD7D6BDDACAFDBEDDA3BA256477
:1016B0000A000000A1B7CFF2CEC4BCFED0B4C8EB84
:1016C000B5C4CAFDBEDDCEAAA3BA0D0A25730D0AA4
:1016D00000000000A1B7B4F2BFAACEC4BCFEB3C9DB
:1016E000B9A6A1A30D0A000098000020A3A1A3A100
:1016F000CEC4BCFEB6C1C8A1CAA7B0DCA3BA282517
:1017000064290A00A1B7CEC4BCFEB6C1C8A1B3C942
:10171000B9A62CB6C1B5BDD7D6BDDACAFDBEDDA30C
:10172000BA25640D0A000000A1B7B6C1C8A1B5C3AF
:10173000B5C4CEC4BCFECAFDBEDDCEAAA3BA0D0A96
:101740002573200D0A0000007047FEE7FEE7FEE764
:10175000FEE7704770477047704701F028BA0000F5
:1017600038B501210820FFF778F92020ADF80000F6
:1017700010208DF8030003208DF802000F4C6946FD
:101780002046FEF764FF0121ADF8001069462046AF
:10179000FEF75DFF0221ADF8001069462046FEF716
:1017A00056FF20212046FEF7C1FF01212046FEF70B
:1017B000BDFF02212046FEF7B9FF38BD000C0140F5
:1017C00010B586B001210420FFF747F901218803F5
:1017D000FFF743F94FF40070ADF8140018208DF8AE
:1017E000170003208DF81600224C05A92046FEF7AD
:1017F0002EFF2115ADF8141004218DF8171005A93E
:101800002046FEF724FF4FF4E13001900020ADF8B0
:101810000800ADF80A00ADF80C00ADF810000C207F
:10182000ADF80E00144C01A92046FFF7E7FB01219B
:101830002046FFF75EFC06B010BD70B504460E4DA5
:10184000E1B22846FFF7B6FC80212846FFF71FFDCE
:101850000028F9D0204670BD10B5074C2021204645
:10186000FFF715FD0028F9D02046BDE81040FFF72E
:10187000A5BC0000000801400038014038B5002038
:10188000FFF76BF90020FFF76BF9FFF73DF9002137
:101890004FF48060FFF7D6F84FF4F850ADF8000031
:1018A00004248DF803406946FB48FEF7D0FEADF8EE
:1018B00000406946F948FEF7CAFE38BD08B54FF446
:1018C000C060FEF70BFD31208DF8000000208DF880
:1018D00001008DF8020001208DF803006846FEF734
:1018E00002FD08BDEE48FEF712BE70B58CB005468D
:1018F0000C46EC48FEF71AFEEB4E00213046FEF790
:10190000EAFDEA480190029500200390A1080491A5
:10191000059080210691890007918900089109901E
:1019200089000A910B9001A93046FEF7AAFD01211A
:101930003046FEF7D0FD0CB070BD70B58CB00446DB
:101940000D46D848FEF7F2FDD74E00213046FEF78F
:10195000C2FDD6480190029410200390A80804907C
:101960000020059080210691890007918900089147
:10197000099089000A910B9001A93046FEF781FD7C
:1019800001213046FEF7A7FDD5E708B5012130203B
:10199000FFF763F84FF4F850ADF8000003208DF81E
:1019A000020018208DF803006946BB48FEF74FFE81
:1019B0000420ADF800006946B848FEF748FE012152
:1019C0008802FFF73FF801210220FFF73BF808BD2E
:1019D000B6488038416B11F0450FFBD040F2FF5103
:1019E0008163406900F0080070472DE9FC470E460E
:1019F0000024002700970197AD4D4FF0080AC5F865
:101A000000A0102068604FF04008C5F80880EF6023
:101A10004FF48069C5F810902846FFF7BDF81020F4
:101A2000FFF7D6FF002832D1A248008900042860C1
:101A300037206860C5F80880EF60C5F81090284628
:101A4000FFF7AAF83720FFF7C3FF00281FD1411E78
:101A500005F114000160C0F804A03021816002216A
:101A6000C160076101214161FFF7BAF82F6033209F
:101A70006860C5F80880EF60C5F810902846FFF749
:101A80008BF83320FFF7A4FF0546280001D0BDE8FE
:101A9000FC87DFF818824FF4001A6F46A8F180081F
:101AA00040F22A690AE05046FFF7E6F830B1FFF746
:101AB000B7F847F82400641C012C04D8D8F8340087
:101AC00010EA090FEFD00820FFF7D6F820B1082060
:101AD000FFF7DAF80420DAE70220FFF7CDF820B1AB
:101AE0000220FFF7D1F80220D1E72020FFF7C4F849
:101AF00020B12020FFF7C8F80620C8E74FF4007493
:101B00002046FFF7B9F820B12046FFF7BDF80720BF
:101B1000BDE740F2FF50FFF7B7F8009800990006C4
:101B200001F47F4140EA0120009901F47F0140EA7D
:101B30001120009940EA1160706001980199000637
:101B400001F47F4140EA0120019901F47F0140EA5C
:101B50001120019940EA11603060284697E72DE98D
:101B6000FC4706460024009401940020FFF730F85B
:101B7000800101D50E208AE74E4D6946288980B242
:101B8000FFF733FF002882D13720494F4FF0060A74
:101B90004FF040094FF48068012E22D00199C9030B
:101BA00045D52989090439607860C7F80890FC6038
:101BB000C7F810803846FEF7EFFF3720FFF708FF21
:101BC0000028D8D13C60C7F804A0C7F80890FC6092
:101BD000C7F810803846FEF7DFFF0620FFF7F8FE53
:101BE00055E70199490320D52989090439607860AE
:101BF000C7F80890FC60C7F810802D48FEF7CCFFAE
:101C00003720FFF7E5FE0028B5D102203860C7F87D
:101C100004A0C7F80890FC60C7F810802448FEF7BD
:101C2000BBFF0620FFF7D4FE31E725202FE7252054
:101C30002DE72DE9F041014600241E4840680328A5
:101C400005D038B1012805D0022803D044E0272070
:101C5000BDE8F081B1F5805F0FD0154D4FF40067FE
:101C60000026183D4FF00108B94225D10120FFF7A9
:101C700076FF0446200002D02EE02720E8E785F812
:101C800014802E606E60AE60EF602E6108481838D8
:101C9000FEF747FF20E00000001001400014014063
:101CA0000020001000F00010440402408080014039
:101CB00090250020700000200020FFF750FF044610
:101CC000200009D185F814802E606E60AE60EE6051
:101CD0002E61FE48FEF725FF2046B9E710B5FB4907
:101CE0001831086007204860402088600020C860E4
:101CF0004FF4806008610846FEF74EFFBDE81040D3
:101D0000072065E62DE9F043F1494F6880F85670E9
:101D10000989A0F85410DFF8B4C3ACF1880CDCF8E2
:101D200000100A0E93090370C2F38303437002F09C
:101D3000030282700A0CC2700A0A02714171DCF857
:101D40000420110E0901C180C2F30741C38843EA90
:101D50001113C38001F00F010172C2F30721CB09F7
:101D60004372C1F380138372C1F34013C372C1F392
:101D7000001303730023437364460126D4F80880DC
:101D8000002F4FEA1864C8F30745C8F3072904D0A9
:101D9000012F02D0022F3AD04FE08907090D0161CF
:101DA000D1B2026942EA81010161016941EA9411FB
:101DB0000161C4F3C201017504F0070141756909AD
:101DC0008175C5F38201C175A907490F017649469E
:101DD000027E42EAD11202760269521C047EA41CE1
:101DE00006FA04F9A2FB094703FB09774FEAE975F4
:101DF00002FB0575027A06FA02F70765A4FB0729BC
:101E000005FB079504FB0354C0E9122415E0910675
:101E1000890A0161016941EA0421016101692943DB
:101E2000016149460269DC04521C44EA5234D2047E
:101E3000C0E912244FF4007202651C30C1F3801215
:101E400000F8032C8906490E00F8021C08F0FF0177
:101E500010F8022C42EAD11200F8022C01F07F01A6
:101E600000F8011CDCF80C20110ECC090470C1F341
:101E700041144470C1F3820484708907090FC17052
:101E8000C2F30741C47844EA9114C470C1F340140A
:101E90000471437101F001018171C2F30721CC0982
:101EA000C471C1F380140472C1F340144472C1F3CD
:101EB00000148472C1F38104C47201F00301017340
:101EC000D1B2490841738673804A783A11680C0E82
:101ED00004740C0C24024482C1F30724458A254370
:101EE00045820906416151680C0E456945EA044482
:101EF0004461C1F30744456945EA04244461C1F3E0
:101F00000724456925434561017691680C0E4476A6
:101F10000C0C2406C461C1F30724C56945EA0444D6
:101F2000C461C9B2C46944EA0121C161D1680A0E21
:101F3000C4691443C461C1F3074290F8204044EAE5
:101F4000121480F820401207120D4284C1F30722B8
:101F5000448C14434484C9B2490880F8241080F8A2
:101F600025601846BDE8F08310B50024594A516B2E
:101F700000E0516B11F0450FFBD0480705D5032455
:101F80000420FEF781FE204610BDC80705D00124BD
:101F90000120FEF779FE204610BD40F2FF50FEF70B
:101FA00073FE204610BD70B506460C460025494A12
:101FB000506B00E0506B10F0450FFBD0410705D58A
:101FC00003240420FEF760FE204670BDC00705D044
:101FD00001240120FEF758FE204670BDFEF7F4FDF7
:101FE000B04201D0102070BD40F2FF50FEF74CFE11
:101FF0000020FEF7EDFD10F4604F03D0810405D5FD
:10200000132070BD000C2080284670BD410401D50E
:10201000102070BD000401D50F2070BD284670BD92
:102020002DE9F84F002401200090FEF7A2FDE8B151
:10203000DFF89C80254D0026D8F8040018354FF0B5
:10204000C0094FF4806704282AD02E6002206860FF
:10205000C5F80890EE602F612846FEF79DFDFFF75A
:1020600083FF0446200003D0BDE8F88F2520FBE75E
:102070000020FEF7ADFDDFF854A0AAF1780ACAF8F7
:1020800000000420FEF7A4FDCAF804000820FEF7B3
:102090009FFDCAF808000C20FEF79AFDCAF80C0054
:1020A000D8F8040028B1012803D0062801D002285E
:1020B00019D12E60032068604020A860EE602F6177
:1020C00002481830FEF768FD694605E078250020D3
:1020D00070000020008001400320FFF764FF0446E9
:1020E000200000D0C0E7D8F80400042826D0BDF8AE
:1020F0000000C8F808000004286009206860C5F8DE
:102100000890EE602F61F848FEF746FDFFF72CFFC0
:102110000446200000D0A7E70020FEF759FDF24D4D
:10212000A03D28600420FEF753FD68600820FEF7FC
:102130004FFDA8600C20FEF74BFDE860204693E7BA
:1021400010B50024E94A516B00E0516B11F0450FC6
:10215000FBD0480705D503240420FEF795FD204653
:1021600010BD40F2FF50FEF78FFD204610BD10B5A8
:1021700000204FF48031DD4B5A6B01E0491E5A6B51
:1021800012F0450F01D10029F8D109B1510705D549
:1021900003240420FEF778FD204610BD5106FCD52F
:1021A00000244020FEF770FD204610BD70B50025CC
:1021B0004FF4803400E0641E24B18020FEF75CFD03
:1021C0000028F8D02CB140F2FF50FEF75DFD284604
:1021D00070BD032070BD2DE9F05F4FF0000B0024AF
:1021E000A2460027C048B221183801754FF00008F8
:1021F000C0F80080C0F80480C0F80880C0F80C80E7
:10220000C0F81080FEF78DFC0320FEF7A9FC01202A
:10221000FEF7A3FCB44EC6F80080C6F80480C6F8EA
:102220000880C6F80C804FF48069C6F810903046DC
:10223000FEF7B2FCFFF7BAFF00285CD14FF4D5706F
:102240003060082070604025B560C6F80C80C6F884
:1022500010903046FEF7A0FCFFF789FF10B3C6F8D8
:10226000008037207060B560C6F80C80C6F810900A
:102270003046FEF791FC3720FFF7AAFBC6F8008036
:10228000372070604020B060C6F80C80C6F810900F
:102290009548FEF781FC3720FFF79AFB054628009A
:1022A00032D044E09248012141608F07E6E7C6F84A
:1022B0000080372070604025B560C6F80C80C6F8F5
:1022C00010908948FEF768FC3720FFF781FB002853
:1022D00011D188483843306029207060B560C6F855
:1022E0000C80C6F810908048FEF756FCFFF728FFD8
:1022F0000546280001D0BDE8F09F0020FEF768FCED
:1023000083464FEADB7A641CBAF1000F03D14FF623
:10231000FF708442CBD34FF6FF70844201D31B2061
:10232000E9E71BF0804F02D0714802214160284646
:10233000E1E710B5FFF7C2FAFFF727FBFEF7E4FB72
:10234000FFF749FF002822D1FFF76AFE00281ED1BF
:1023500065480121183801750021016041608160E4
:10236000C1600161FEF7DDFB5F487038FFF7CAFC12
:1023700030B95D487038B0F854000004FFF7AEFC87
:10238000002804D1BDE810404FF4006051E410BDB6
:1023900070B505465648554C00890004A06040F2CF
:1023A0004D40E0600D20FFF713FB002801D161696B
:1023B000296070BD08B5002000906846FFF7E8FF6F
:1023C00008B1FF2008BD0098C0F3432008BD10B538
:1023D000FFF7F0FF042803D0FF2803D0012010BD31
:1023E000002010BD022010BD10B500240020FEF713
:1023F000B7FB204610BD2DE9F04705460020FEF74B
:10240000E7FB800102D50E20BDE8F087364C402660
:10241000266010206060A6600027E7604FF48068A7
:10242000C4F810802046FEF7B7FB1020FFF7D0FA63
:102430000028E9D12E480089000420603720606020
:10244000A660E760C4F810802046FEF7A5FB3720A1
:10245000FFF7BEFA0028D7D1411E04F11400016035
:102460004660602181600221C160076101214161F4
:10247000FEF7B6FB27600D206060A660E760C4F839
:1024800010802046FEF788FB0D20FFF7A1FA0646D4
:10249000300000D0B8E74FF40049144F40F22A68EA
:1024A0000CE04846FEF7E8FB40B10024FEF7B8FB1D
:1024B00045F82400641C082CF8D32035786B10EA0A
:1024C000080FEED00820FEF7D7FB20B10820FEF75A
:1024D000DBFB042098E70220FEF7CEFB60B1022070
:1024E000FEF7D2FB02208FE79025002000800140FC
:1024F00070000020000010802020FEF7BDFB20B1FE
:102500002020FEF7C1FB06207EE74FF40074204632
:10251000FEF7B2FB20B12046FEF7B6FB072073E7BB
:102520004FF4001402E0FEF77BFB01C52046FEF7E6
:10253000A3FB0028F7D140F2FF50FEF7A5FB304681
:1025400062E710B50446F948FFF755FF0146080059
:1025500000D010BDF5480278920922700278C2F3CB
:1025600040126270827812026280C27863881343DC
:1025700063800279120662604279636843EA02422C
:1025800062608279636843EA02226260C2796368AA
:1025900013436360027A2272427A6272827A12096B
:1025A000A272C27A1202A281027BA3891343A38181
:1025B000427B9208A273407B00F00300E073084660
:1025C00010BD2DE9F0478046089E14461D46D848A8
:1025D000002707700761C760D649CF6240680228AC
:1025E00003D10602640A44EAC554D04D80352E60FA
:1025F000102068604FF04009C5F80890EF604FF474
:10260000806AC5F810A02846FEF7C6FA1020FFF72A
:10261000DFF900281ED1411E05F11400016046605B
:10262000902181600221C160076101214161FEF7B3
:10263000D7FA2C6011206860C5F80890EF60C5F8E3
:1026400010A02846FEF7A8FA1120FFF7C1F90446AA
:102650000CB12046D8E601210802FEF78FFA0120CE
:10266000FEF797FA31464046FFF73FF92046CBE6A2
:102670002DE9FF5F1446DDE90E6A1D46AC480027D0
:10268000077007614FF00108C0F80C80A949CF62BC
:102690004068022803D10602640A44EAC554A34DE7
:1026A00080352E60102068604FF04009C5F8089012
:1026B000EF604FF4806BC5F810B02846FEF76CFA57
:1026C0001020FFF785F9002821D1411E05F11400E3
:1026D00001600AFB06FAC0F804A090218160022183
:1026E000C1600761C0F81480FEF77AFA2C601220EE
:1026F0006860C5F80890EF60C5F810B02846FEF78E
:102700004BFA1220FFF764F9044614B1204604B0D6
:10271000F1E501210802FEF731FA0120FEF739FA4E
:1027200051460098FFF7E1F82046F0E770B5002524
:102730007F4CFFF7D7F820B9206910B9207800281E
:10274000F7D0207808B1207870BD284670BD2DE9FB
:10275000F0478046089E14461D46754800270770BE
:102760000761C7607349CF624068022803D106023F
:10277000640A44EAC5546D4D80352E6010206860AF
:102780004FF04009C5F80890EF604FF4806AC5F833
:1027900010A02846FEF700FA1020FFF719F90028CC
:1027A00029D12C6018206860C5F80890EF60C5F842
:1027B00010A02846FEF7F0F91820FFF709F90028C5
:1027C00019D105F11402401E1060566090209060EF
:1027D000D7601761012050611046FEF701FA012110
:1027E0000802FEF7CBF931464046FFF7A6F8012074
:1027F000FEF7CFF9384607E62DE9FF5F82B01446B1
:10280000DDE910671D464FF00008CDF80480DFF8C1
:10281000209189F80080C9F810800120C9F80C00C7
:102820004448C0F82C80D9F80400022803D10602DD
:10283000640A44EAC5543D4D80352E60102068601E
:102840004FF0400AC5F808A0C5F80C804FF4806B23
:10285000C5F810B02846FEF79FF91020FFF7B8F82A
:10286000002852D1B9F808000004286037206860B9
:10287000C5F808A0C5F80C80C5F810B02846FEF7CA
:102880008BF93720FFF7A4F800283ED12F601720DE
:102890006860C5F808A0C5F80C80C5F810B02846D7
:1028A000FEF77AF91720FFF793F800282DD12C6056
:1028B00019206860C5F808A0C5F80C80C5F810B0EC
:1028C0002846FEF769F91920FFF782F800281CD185
:1028D00005F11402401E106077435760902090600D
:1028E000C2F80C80C2F81080012050611046FEF73B
:1028F00077F901210802FEF741F90120FEF749F9B5
:1029000039460298FFF719F8404606B0F3E470B56F
:102910000025074CFEF7E6FF20B9206910B92078A2
:102920000028F7D0207838B1207870BD102500201D
:10293000700000200080014040F2FF50FEF7A4F933
:102940002846F2E7AD48406B10F4405F01D001200B
:10295000704700207047A9480021816040F24C4137
:10296000C1600C20FFF734B87CB504460025002276
:1029700001920092A248A3490089000408600D203A
:10298000486040208860CA60000108610846FEF780
:1029900003F99A49486B009001E04A6B0092009A53
:1029A00012F0450FF9D00098400705D50324042004
:1029B000FEF76AF920467CBD0098C00705D00124C7
:1029C0000120FEF761F920467CBDFEF7FDF800907E
:1029D00000980D2801D010207CBD40F2FF50FEF77A
:1029E00053F90020FEF7F4F801900198C0F343205A
:1029F000207085490198084201D128467CBD019884
:102A0000002801DA1C207CBD0198400001D5092076
:102A10007CBD0198800001D50A207CBD0198C000D2
:102A200001D50B207CBD0198000101D50C207CBD97
:102A30000198400101D50D207CBD0198C00101D550
:102A40000E207CBD0198000201D50F207CBD0198AD
:102A5000400201D510207CBD0198800201D51120D3
:102A60007CBD0198C00201D512207CBD01980003F5
:102A700001D513207CBD0198400301D514207CBDF5
:102A80000198800301D515207CBD0198C00301D5B4
:102A900016207CBD0198000401D517207CBD01984B
:102AA000400401D518207CBD0198800401D519206F
:102AB0007CBD0198000701D51A207CBD28467CBD4D
:102AC0002DE9FC4782460D4600240026019600961B
:102AD0004C48A0384068000D800602D42520BDE88F
:102AE000FC87464840684949C0B2801CB1FBF0F001
:102AF00001900020FEF76CF8800101D50E20EEE772
:102B00003F484068022802D14FEA5A2A6D0A3D4FD9
:102B10004FF040084FF4806918B1012801D0022815
:102B200020D1C7F800A020207860C7F80880FE6098
:102B3000C7F810903348FEF72FF82020FEF748FF23
:102B40000028CCD13D6021207860C7F80880FE6065
:102B5000C7F810902B48FEF71FF82120FEF738FF2A
:102B60000028BCD13E6026207860C7F80880FE604F
:102B7000C7F810902348FEF70FF82620FEF728FF2D
:102B80000028ACD100E0641C01988442FBD3684665
:102B9000FFF7EAFE02E06846FFF7E6FE00289ED156
:102BA0009DF800100729F6D00629F4D097E770B5F4
:102BB000134CE168002001290DD020704FF480757E
:102BC0002846FEF76CF800212846FDF7D7FF0120C4
:102BD00020612078A9E60949886040F24C40C8602D
:102BE0000C20FEF7F5FE2070E8E7002102E0400827
:102BF000491CC9B20128FAD108467047008001403B
:102C0000700000209025002008E0FFFDC0D40100E6
:102C100070B586B001210803FDF71FFF0121D42004
:102C2000FDF71BFF0124ADF8004003208DF80200E2
:102C300010208DF80300FA4D69462846FDF707FD80
:102C40002021ADF8001018218DF80310F54E6946CB
:102C50003046FDF7FCFC4021ADF8001069463046D7
:102C6000FDF7F5FC8021ADF8001069463046FDF710
:102C7000EEFC01212846FDF759FD0020ADF80400C7
:102C80004FF48271ADF80610ADF808000221ADF8DE
:102C90000A10ADF80C400902ADF80E100821ADF88D
:102CA0001010ADF812000720ADF81400DE4C01A999
:102CB0002046FEF72DF801212046FEF7AEF806B0BB
:102CC00070BD10B50146D9A003F082F8002010BDF8
:102CD0002DE9F0410746E14C4FF480552560D24E76
:102CE00009E02068411E216005D20020FFF7E9FFBE
:102CF000C0B2BDE8F08102213046FEF70AF9002893
:102D0000EFD039463046FEF7B8F8256008E0216874
:102D10004A1E226004D20120FFF7D3FFC0B2E8E7C9
:102D200001213046FEF7F5F80028F0D03046FEF7D6
:102D3000A6F8C0B2DDE710B5B94C01212046FDF779
:102D4000F7FC0520FFF7C4FFFF20FFF7C1FFC00716
:102D5000FAD12046BDE810400121FDF7E7BC10B5CF
:102D6000AF4C01212046FDF7E3FC0620FFF7B0FF42
:102D70002046BDE810400121FDF7D8BC70B50446DF
:102D8000FFF7EDFFFFF7D7FFA54D01212846FDF71F
:102D9000CFFC2020FFF79CFFC4F30740FFF798FF0C
:102DA000C4F30720FFF794FFE0B2FFF791FF012182
:102DB0002846FDF7BBFCBDE87040BCE710B5FFF747
:102DC000CEFF974C01212046FDF7B2FCC720FFF74C
:102DD0007FFF01212046FDF7A9FCBDE81040AAE7CE
:102DE0002DE9F04105460F461446FFF7B8FF8C4E1B
:102DF00001213046FDF79CFC0220FFF769FFC7F375
:102E00000740FFF765FFC7F30720FFF761FFF8B240
:102E1000FFF75EFFB015844208D9044690A002F087
:102E2000D7FF03E02878FFF753FF6D1C641EA4B2A0
:102E3000F8D201213046FDF779FCBDE8F0417AE790
:102E40002DE9F04706460D46E8B24142CFB2140ADA
:102E500002F0FF094FF48078002812D0E8B2404217
:102E6000C0B205EB000A24B3D01B80B2040A00F004
:102E7000FF093A4629463046FFF7B2FF55463E4421
:102E800035E06CB929463046BDE8F047A8E7424630
:102E900029463046FFF7A4FF05F5807506F58076D4
:102EA000641EE4B2F3D24A4629463046BDE8F047F4
:102EB00096E7B9450DD9A9EB0700C4B23A462946B1
:102EC0003046FFF78DFF5146F0192246BDE8F04726
:102ED00086E729463046BDE8F04781E74246294665
:102EE0003046FFF77DFF05F5807506F58076641E98
:102EF000E4B2F3D2B9F1000F05D04A462946304674
:102F0000BDE8F0476CE7BDE8F0872DE9F0410446E5
:102F10000F461546424E01213046FDF709FC0320BD
:102F2000FFF7D6FEC7F30740FFF7D2FEC7F307202F
:102F3000FFF7CEFEF8B2FFF7CBFE04E0FF20FFF76D
:102F4000C7FE04F8010B6D1EADB2F7D23046BDE8E6
:102F5000F0410121FDF7EABB2DE9F041304F01219D
:102F60003846FDF7E5FB9F20FFF7B2FEFF20FFF795
:102F7000AFFE0446FF20FFF7ABFE0546FF20FFF73C
:102F8000A7FE064601213846FDF7D0FB200440EAA3
:102F900005203043ADE670B5214C01212046FDF7F8
:102FA000C7FBAB20FFF794FEFF20FFF791FEFF2049
:102FB000FFF78EFEFF20FFF78BFEFF20FFF788FE56
:102FC000054601212046FDF7B1FB284670BD10B52E
:102FD000044601211248FDF7ABFB0320FFF778FE02
:102FE000C4F30740FFF774FEC4F30720FFF770FE39
:102FF000E0B2BDE810406BE6FF2069E62DE9F04144
:103000000746164C4FF480552560074E42E0206875
:10301000411E21603ED2BDE8F041022051E6000091
:103020000010014000080140003001403C3C2D46AA
:103030004C4153482D4552524F522D3E3E20535045
:103040004920B5C8B4FDB3ACCAB1216572726F72C4
:10305000436F6465203D2025640A00008400002041
:103060003C3C2D464C4153482D4552524F522D3E2B
:103070003E205350495F464C4153485F506167655D
:10308000577269746520746F6F206C617267652177
:103090000A00000002213046FDF73BFF0028B6D0B1
:1030A00039463046FDF7E9FE256007E021684A1EF3
:1030B000226003D2BDE8F041032002E60121304640
:1030C000FDF727FF0028F1D03046BDE8F041FDF7BD
:1030D000D6BE10B50E4C01212046FDF729FBB920C4
:1030E000FFF7F6FD2046BDE810400121FDF71EBBAD
:1030F00010B5074C01212046FDF71AFBAB20FFF766
:10310000E7FD2046BDE810400121FDF70FBB0000A0
:103110000010014001460120002900D10020704725
:1031200010B50124002803D1FFF703F900B90024EA
:10313000204610BD2DE9F041ADF5007D07460E4655
:1031400014461D460420002F18D1B0074FF4007814
:1031500018D00FE02246641C012369460020FFF7C7
:10316000E9FF07464FB942466946304602F0D7FDAF
:1031700006F500766D1E681CECD138460DF5007D15
:10318000BDE8F081CDE90085E30D62023046FFF72E
:103190006FFA044634B9FFF7C9FA0446FFF717F986
:1031A0000028FBD10CB10420E8E70020E6E7F0B5E9
:1031B000ADF5017D07460E4614461D460420002D40
:1031C00007D0002F06D1B0074FF4007719D00020A8
:1031D00013E004200DF5017DF0BD3A46314601A80B
:1031E00002F09DFD2246641C012301A90020FFF787
:1031F000DEFF0028EED106F500766D1E691CECD1CD
:10320000E8E7CDE90075E30D62023046FFF7F4FA16
:10321000044634B9FFF77BFB0446FFF7D8F80028D3
:10322000FBD10CB10420D5E70020D3E710B503464D
:1032300014460420002B16D1A1B101290BD002297C
:1032400002D003290ED103E04FF40070208009E082
:103250000120206006E005490023483107C902F03B
:103260002DFD2060002010BD014870472025002062
:103270000000214603E011F8013B00F8013B521E1B
:10328000531CF8D17047C9B201E000F8011B521E6F
:10329000531CFAD1704710B50023521E541C05D0A0
:1032A00010F8013B11F8014B1B1BF6D0184610BD5E
:1032B00000E0401C02780AB18A42FAD100787047D7
:1032C0002DE9F04104460027207900281FD0E66A46
:1032D00004F130016078012332468846FFF767FF2A
:1032E00008B1012713E000202071206AA169301A7B
:1032F00088420CD2E57808E0A06906446078012392
:1033000032464146FFF753FF6D1E022DF4D2384678
:10331000BDE8F08170B504460E460025E06AB04273
:1033200010D02046FFF7CCFF05465DB96078012339
:10333000324604F13001FFF7FDFE10B14FF0FF36C9
:103340000125E662284670BD70B504462046FFF7A9
:10335000B7FF054628004FD12078032845D1607972
:10336000012842D104F13000628900210646FFF7AE
:103370008AFF552084F82E02AA2084F82F025220BA
:1033800084F8300084F83100612084F83200412153
:1033900084F83310722284F8142284F8152284F8F9
:1033A000161284F81702206984F81802010A84F8BA
:1033B0001912010C84F81A12000E84F81B02E0683E
:1033C00084F81C02010A84F81D12010C84F81E12F4
:1033D000000E84F81F02E269521CE2626078012349
:1033E0003146FFF7E4FE002060710022607811464C
:1033F000FFF71CFF00B10125284670BD891E4269F8
:10340000921E8A4201D800207047826A807801FBB0
:10341000002070472DE9F04104460D46022D02D3ED
:103420006069A84201D8012609E04FF0FF362078F4
:10343000012806D0022834D003284AD0012630467D
:1034400066E705EB55076089216AB7FBF0F0014498
:103450002046FFF75FFF0028F1D160893946B1FBB4
:10346000F0F200FB121121447F1C91F83080B7FB71
:10347000F0F0216A01442046FFF74CFF0028DED11E
:103480006089B7FBF0F100FB1170204490F8300028
:1034900048EA0020E90701D00609D0E7C0F30B068F
:1034A000CDE76089216A4008B5FBF0F00144204671
:1034B000FFF730FF0028C2D161896800B0FBF1F24C
:1034C00001FB1200204430300178407841EA0026A8
:1034D000B5E76089216A8008B5FBF0F00144204619
:1034E000FFF718FF0028AAD16189A800B0FBF1F20C
:1034F00001FB1200204430300178C27841EA0261B9
:1035000082784078120442EA0020014321F070469C
:1035100095E72DE9F04704460D461646022D02D3E5
:103520006069A84202D80220BDE8F087207806F042
:10353000FF094FF00108012805D0022842D00328D6
:103540005AD00220F0E705EB55076089216AB7FBE6
:10355000F0F001442046FFF7DDFE0028E4D13846B4
:1035600061897F1CB0FBF1F201FB12002044303076
:10357000E90703D0017869F31F1100E031460170BB
:1035800084F804806089216AB7FBF0F0014420468A
:10359000FFF7C0FE0028C7D16189B7FBF1F201FB3C
:1035A000127121443031EA0702D0C6F3071205E058
:1035B0000A78C6F3032302F0F0021A430A7084F873
:1035C0000480B1E76089216A4008B5FBF0F001444E
:1035D0002046FFF79FFE0028A6D162896900B1FB53
:1035E000F2F302FB1311214481F83090320A81F882
:1035F000312084F8048097E76089216A8008B5FB50
:10360000F0F001442046FFF785FE00288CD1628946
:10361000A900B1FBF2F302FB1311214430314FF04A
:103620007043CA7803EA026232430A70130A4B708D
:10363000130C8B70120ECA7084F8048074E72DE9A5
:10364000F04104460F46022F02D36069B84201D808
:10365000022624E000261FE039462046FFF7DAFE66
:103660000546E5B1012D09D0681C09D00022394674
:103670002046FFF74EFF06468EB903E002260EE015
:1036800001260CE02069411C05D0401C20616079B6
:1036900040F0010060712F466069B842DCD83046C6
:1036A00036E62DE9F04106460F46002F07D0394691
:1036B0003046FFF7AFFE022808D2012028E6F56861
:1036C00015B17069A84207D8012505E0411CF5D065
:1036D00071698142F2D83D462C46641C7069A04253
:1036E00004D80224022D01D2002011E621463046E2
:1036F000FFF790FE38B1411CE0D00128DED0AC428B
:10370000EBD1002004E66FF0704221463046FFF70F
:1037100000FF28B927B1224639463046FFF7F9FEA7
:1037200020B101280DD001242046F1E5F460306974
:10373000411CF9D0401E3061707940F00100707179
:10374000F2E74FF0FF34EFE770B504460D46E58031
:10375000A368012B03D020684169994201D8022057
:1037600070BD1BB90178032900D1436A23B1418997
:1037700080784E09464318E00189A94201D8022009
:1037800070BD406A17E019462068FFF743FE034604
:10379000581C07D0022B03D320684069984203D8F5
:1037A000022070BD012070BDAD1BB542EBD21946A1
:1037B0002068FFF723FEE36098B121684A89520927
:1037C000B5FBF2F21044206148894009B5FBF0F2E4
:1037D00000FB1250302202EB4010084460610020D0
:1037E00070BD022070BD2DE9F04104460E46E78809
:1037F0007F1C3804000C0AD0216941B1206842893D
:103800005209B7FBF2F302FB137212B165E0042018
:103810007EE5491C2161E16871B1428983785209D2
:10382000B7FBF2F25B1E1A4257D1FFF7F3FD0546D4
:10383000012D06D802206BE50089B8424DD804203E
:1038400066E5681C14D020684169A9423FD88EB152
:10385000E168FFF726FF054628000DD0012D0DD0A9
:10386000681C0DD02068FFF72BFD58B101204FE5F3
:1038700001204DE504204BE5072049E5022047E5FE
:10388000012045E52068002142893030FFF7FBFC2C
:1038900029462068FFF7B2FD2168C86200264FF074
:1038A00001080CE080F804802068FFF709FD08B1EA
:1038B00001202DE52068C16A491CC162761C206880
:1038C0008178B142EED82168C96A891BC162E5607E
:1038D00029462068FFF792FD2061E7802068418932
:1038E0004909B7FBF1F201FB1271302202EB4111E1
:1038F0000844606100200BE570B505460E460021C6
:103900002846FFF721FF88B9002429692868FFF7B6
:1039100001FD58B969690978E5290BD051B1002436
:1039200001212846FFF75FFF0028EED0042800D1D0
:10393000072070BD641CB442F8D0F1E70246887ECF
:10394000CB7E40EA03201278032A05D10A7D497D07
:1039500042EA012140EA0140704781760A0AC276B4
:103960000A0C0275090E417570472DE9F05F81461A
:103970000E46B07EF17E50EA012002D00020BDE864
:10398000F09F307800F03F00401E00EB800101EB1B
:10399000C00401200025DFF868A406F101081AF828
:1039A0000510725C11F8081042EA012788B1FF2C5B
:1039B0000BD2384602F059F983462046641C39F888
:1039C000100002F052F9834501D00020D7E73846B5
:1039D00005E0A7F57F41FF3901D00020CFE76D1C3E
:1039E0000D2DDCD33178490605D520B139F8140006
:1039F00008B10020C3E70120C1E72DE9F0418A7E2C
:103A0000CB7E52EA032201D0002081E40A7802F042
:103A10003F02521E02EB820303EBC2020125002388
:103A2000F74F4E1C4FF6FF7CFC5C11F80480A45D40
:103A300048EA04244DB1FF2A01D3002068E49046EF
:103A40002546521C20F8184003E0644501D00020B0
:103A50005EE45B1C0D2BE7D30978490606D5FF2AE7
:103A600001D3002054E4002120F8121001204FE47B
:103A70002DE9F0434B730F23CB7200230B738B762E
:103A8000CB76531E03EB830404EBC30500231C46D3
:103A9000DB4E01F1010C4FF6FF77BB4203D02B4602
:103AA0006D1C30F8133016F8048001F8083016F851
:103AB00004904FEA132809F80C8003B93B46641CB4
:103AC0000D2CEAD3BB4202D030F8150008B942F001
:103AD00040020A70BDE8F0837CB5054616461C46D8
:103AE0000B222846FFF7C6FB052C11D9C5480CE070
:103AF000B61C002322460C4662F35F044908E20329
:103B000000D544405B1C102BF4D331880029EFD141
:103B100007226B4604F00F013031392901D9C91D44
:103B2000C9B21046521E19542409002CF2D17E202D
:103B300098540021541E06E081387D2802D8A14205
:103B400006D0491C491C914202D2685C2028F3D15E
:103B5000082A03D21046521C185C00E020200C46B4
:103B6000491C28550829F3D37CBD014600200B22AF
:103B7000430803EBC01011F8013B1844C0B2521EB9
:103B8000F6D170472DE9F047044600212046FFF7A3
:103B9000DBFD002857D1FF26B1464FF6FF7AA4F887
:103BA00020A021692068FFF7B5FB80465FEA080086
:103BB00048D167693D7865B1F87A00F03F00E52D9E
:103BC00003D0010708D50F2806D0FF26A4F820A0AF
:103BD00030E04FF0040835E00F2801D0CEB11DE0F1
:103BE000E06938B3690606D597F80D9025F04005D1
:103BF0002E46E1882184B54208D1797B494505D11B
:103C00003946FFF7B2FE08B1761E00E0FF26F6B295
:103C100010E03846FFF7A9FF484513D0A169C87ADC
:103C2000C00704D10B223846FFF735FB50B1FF2601
:103C3000A4F820A000212046FFF7D5FD80465FEACA
:103C40000800AED040466FE42DE9F04705468946AE
:103C5000FF26B046042748E02868FFF75BFB0746CD
:103C6000380045D1686904787CB1C17A01F03F0120
:103C7000E52C08D02E2C06D021F02002082A06D0F0
:103C800000224A4505D0FF261FE0042730E001222C
:103C9000F7E70F2901D026BB1FE0610606D590F893
:103CA0000D8024F040042646E9882984B4420AD1D4
:103CB000417B414507D1EA6901461046FFF79DFE69
:103CC00008B1761E00E0FF26F6B200212846FFF775
:103CD0008AFD0746380008D00AE0FFF746FF404556
:103CE00006D04FF6FF70288402E029690029B3D17D
:103CF0000FB100202861384616E42DE9FE43044642
:103D0000A769E6690C2239466846FFF7B3FA9DF8C1
:103D10000B00C00718D00020F872E06101252B4687
:103D2000324669463846FFF7D7FE2046FFF72AFF9E
:103D300010B96D1C642DF2D3642D0BD004280AD168
:103D40009DF80B00F872E6619DF80B0080070ED518
:103D5000002003E00720BDE8FE83401C36F8101069
:103D60000029FAD119300D21B0FBF1F600E001264F
:103D700031462046FFF7C0FD054601271DBB761ED4
:103D800021D0E088811B2046FFF7DEFC0546280095
:103D900019D1A069FFF7E9FE804621692068FFF785
:103DA000B9FA05467DB9F2B243466169E069FFF7A9
:103DB0005FFE2068077100212046FFF714FD0546CD
:103DC0000DB9761EE9D1C5B921692068FFF7A2FABD
:103DD0000546280011D1202200216069FFF753FA1F
:103DE000D4E905010B22FFF745FAA0696169C07AA1
:103DF00000F018000873206807712846ABE7000040
:103E0000C85F00082110010070B50446E688218CC7
:103E1000A1F57F40FF3800D131462046FFF794FCE2
:103E2000054628001DD121692068FFF773FA054671
:103E3000A5B9202200216069FFF725FA6169E52014
:103E40000870216801200871E088B04206D2002184
:103E50002046FFF7C8FC0546002DE4D0042D00D114
:103E60000225284670BD2DE9F0410E4606F10905F0
:103E70000169002937D0436900242146641C5A5C3B
:103E8000202A17D0052A00D1E522092C02D12E21A3
:103E900005F8011BA2F14101192909D81F7B092C42
:103EA00001D3102100E008210F4201D02032D2B20C
:103EB00005F8012B0B2CE0D3D97A3172197FDA7F08
:103EC0005C7F41EA02619A7F120442EA04221143B4
:103ED0003160197E5A7E41EA0221B180997DDA7DF6
:103EE00041EA0221F1804FF0000885F80080B769AF
:103EF000002F26D00024016909B3F169F9B1018CC2
:103F0000A1F57F42FF3A1AD0C56914E0002101F003
:103F10007BFE58B1FF2803D9020A2146641C7A545B
:103F2000F169491EA14203D8002408E0002406E0FC
:103F30002146641C785435F8020B0028E6D107F8B6
:103F4000048065E42DE9F35F8846D8F8006000E05E
:103F5000761C30782F28FBD05C28F9D00098D0F858
:103F60001CA00024254628466D1C305C202808D360
:103F70002F2806D05C2804D0FF2C09D30620BDE8EA
:103F8000FC9F7119C8F8001020282AD2042532E0BD
:103F9000C0B2A0F181017D290ED829466D1C715C4B
:103FA00001EB002080B2A1F140023F2A04D3803906
:103FB0007F2901D30620E2E7012101F025FE074613
:103FC00047B1802F08D23946FEA0FFF771F918B12A
:103FD0000620D4E70620D2E72046641C2AF8107099
:103FE000C1E7002507E0601E3AF81000202801D044
:103FF0002E2802D1641E002CF5D154B100202AF8DD
:10400000140000980B2220218069FFF73CF900275B
:1040100002E00620B3E77F1C3AF817002028FAD008
:104020002E28F8D01FB145F0030500E0641E24B12E
:10403000601E3AF810002E28F8D14FF00008C14653
:104040004FF0080B38467F1C3AF8106006B3202E5C
:1040500003D02E2E04D1A74202D045F00305F1E78C
:10406000D84501D2A74219D1BBF10B0F0ED0A74200
:1040700001D045F003050BD827464FF008084FF054
:104080000B0B4FEA89604FEA1069DBE745F0030547
:10409000009880690178E5293DD03EE0802E08D364
:1040A000304601F0E2FD002101F0AEFD064645F08C
:1040B0000205FF2E0FD9ABF10100804503D345F077
:1040C0000305D846BEE70098310A8269404608F1E8
:1040D0000108115418E026B13146BDA0FFF7E8F8F9
:1040E00018B15F2645F003050EE0A6F1410019283E
:1040F00002D849F0020907E0A6F16100192803D8A7
:1041000049F00109203EB6B200988169404608F1A5
:1041100001080E5496E705210170BBF1080F03D189
:104120004FEA89604FEA1069C9F38100032803D080
:104130006FEA0901890701D145F00205A90709D4F1
:1041400009F00301012901D145F01005012801D131
:1041500045F0080500988069C57200200FE773B527
:104160000446019908782F2801D05C2801D1491C08
:1041700001910025A56001980078202805D2002132
:104180002046FFF7E1FA65617CBD01A92046FFF7F3
:10419000D9FE0028F8D12046FFF7F4FCA169C97ABE
:1041A00028B10428F0D14907EED405207CBD490789
:1041B000FCD46169C87AC00601D405207CBD2068A2
:1041C000FFF7BCFBA060E0E710B504464FF0FF30FE
:1041D0002368002B0BD0194600E0491C0A78202ADE
:1041E00001D33A2AF9D10A783A2A01D0002010BD29
:1041F00013F8012B303A0A2AF9D28B42F7D1022A5E
:10420000F5D21046491C216010BD10B504460020AF
:104210002071401EE0622046FFF77CF808B10320C1
:1042200010BD94F82E0294F82F1240EA0120A0F558
:104230002A41553901D0022010BD14F8660FE178EB
:10424000627840EA0161A078663C000440EA0220FE
:1042500001436148B0EB012F01D1002010BD14F8DB
:10426000821FE278637841EA0261A278120442EA8E
:1042700003221143B0EB012F01D1002010BD01201A
:1042800010BD2DE9FF478046084616460027C8F8AE
:104290000070FFF799FF0546002D02DA0B2004B0ED
:1042A000D1E44E4850F825408CB1C8F80040207841
:1042B00020B16078FEF72EFFC1070AD02770E8B260
:1042C0006070FEF72DFFC1070AD00320E7E70C203E
:1042D000E5E71EB1400701D50A20E0E70020DEE750
:1042E0001EB1400701D50A20D9E7607804F10A021F
:1042F0000221FEF79BFF30B96089B0F5007F02D341
:10430000B0F5805F01D90120C9E700252946204684
:10431000FFF77BFF012826D10021E84604EB0110BE
:1043200000F5F770027952B1027AC37A42EA036269
:10433000837A407A1B0443EA0020024300E0002213
:1043400048F82120491C0429E8D3002658F82650B3
:1043500025B129462046FFF758FF00E0022010B1A2
:10436000761C042EF2D3032802D018B10D2096E754
:10437000012094E794F83B0094F83C10B4F80AC08C
:1043800040EA0120604501D00D2088E794F84600FE
:1043900094F8471040EA012058B914F8540FE17816
:1043A000627840EA0160A1780904543C41EA0221A4
:1043B0000843A06194F840A084F803A0BAF1010F6B
:1043C00013D00DE0222A3A3C3E3F7C7F00000000E3
:1043D0002B2C3B3D5B5D0000004641548C000020CF
:1043E000BAF1020F01D00D2059E70AFB00FA94F848
:1043F0003D20A27012B1511E0A4201D00D204EE79D
:1044000094F8411094F8423041EA032323814FEAA3
:104410005C16B3FBF6F106FB113109B10D203EE746
:1044200094F8431094F8448041EA082179B994F84B
:10443000501094F8538094F8519041EA086194F830
:1044400052804FEA084848EA092841EA080194F8EE
:104450003E8094F83F9048EA0929B9F1000F08D04E
:10446000B3FBF6F609EB0A08B044414503D20D2030
:1044700015E70D2013E7A1EB0801B1FBF2F141B301
:10448000012640F6F672914200D302264FF6F672EC
:10449000914200D30326891C6161E56105EB0902A5
:1044A0002262A844C4F82880032E14D03BB352449F
:1044B0006262022E25D001F0010201EB410102EB04
:1044C0005101491E6144B1FBFCF181421BD90D2011
:1044D000E5E60D20E3E60BB10D20E0E694F85C2064
:1044E00094F85F3094F85D8042EA036294F85E309D
:1044F0001B0443EA08231A4362628900E1E70D20A6
:10450000CDE64900DDE74FF0FF302061E06080201C
:104510006071032E57D194F8600094F8611040EA5E
:10452000012001284FD1691C2046FEF7F3FEE0BBB5
:10453000677194F82E0294F82F1240EA0120A0F53A
:104540002A4155393FD114F8300FE178627840EABA
:104550000160A178303C090441EA02210843FC498A
:10456000884230D194F8140294F8171294F8152266
:1045700040EA016094F81612090441EA0221084356
:10458000F44988421FD194F8180294F81B1294F849
:10459000192240EA016094F81A12090441EA022142
:1045A0000843206194F81C0200E00CE094F81F120C
:1045B00094F81D2240EA016094F81E12090441EAB1
:1045C00002210843E0602670E3490888401C088007
:1045D000E080002063E610B500280CD0016851B1DE
:1045E0000A7842B1CA888088824204D14878FEF7AE
:1045F00091FDC00701D0092010BD002010BD17B5E6
:1046000081B01446029800906846FFF7DDFD00284F
:1046100002DA0B2004B010BDCF4B1B1D53F8201045
:10462000002201B10A700199002900D00A7043F8F4
:10463000201001D0012C01D00020EBE7002202A9BC
:1046400001A8FFF71EFEE5E72DE9F747ADF50D7D63
:104650000646002E0FD04FF00008C6F8008002F08A
:104660001F0727F001028EA984A8FFF70AFE05465E
:10467000280005D096E009200DF5107DBDE8F087F3
:1046800081A88A9001A88B9084A88E99FFF767FD76
:104690000546899C0DB904B9062517F01C0F51D0A9
:1046A0004DB1042D03D184A8FFF727FB054647F041
:1046B0000807899C08E0E07A10F0110F01D0072567
:1046C00002E0780700D50825DDBB380745D5FEF7A1
:1046D000CBFDA073010AE173020C2274030E637414
:1046E000A075E1752276637684F80B8084F81C80CF
:1046F00084F81D8084F81E8084F81F8021468498E9
:10470000FFF71CF9814600212046FFF726F984991E
:1047100001200871B9F1000F1FD08498D0F82CA0A7
:1047200049468498FEF78BFF0546280015D18498EA
:10473000A9F10109C0F80C9051468498FEF7EAFDF2
:1047400005460AE04DB9E07AC10601D5042504E02A
:10475000B90702D5C00700D007253DB9380701D5F4
:1047600047F020078498C06AF0613462D5B9B77108
:1047700086F8078021468498FFF7E0F83061207FB3
:10478000E17F627F40EA0160A17F090441EA0221E2
:104790000843F060C6F80880C6F818808498306036
:1047A000C088B080284667E72DE9F84F0446884660
:1047B000164699460020C9F800002046FFF70BFF77
:1047C000002812D1E07900280FD1A079C0070BD0C2
:1047D000D4E90210401A864200D9064604F12400AA
:1047E0004FF0010A009098E00720BDE8F88F22689A
:1047F000A0685189B0FBF1F301FB1303002B6DD1CD
:10480000B0FBF1F193785B1E1940CDB275B940B1A0
:1048100010466169FEF7FEFD022804D20220E07115
:10482000E3E72069F8E7411C1CD0606161692068FA
:10483000FEF7E4FDD0B100EB050B20684189B6FB23
:10484000F1F74FB38178EA198A4200D94F1B4078BB
:104850003B465A464146FEF76DFC50B184F807A02E
:104860000120C2E784F807A00120BEE70220E07122
:10487000BBE7A07940060BD5A069A0EB0B00B842BE
:1048800006D221684A89009900FB0280FEF7F2FCFB
:10489000206845897D4336E0A2695A451CD0A1793C
:1048A00049060DD5407801230099FEF780FC18B128
:1048B00084F807A0012098E7A07920F04000A071BB
:1048C000206801235A4640780099FEF733FC18B15E
:1048D00084F807A0012088E7C4F818B02068A16810
:1048E0004089B1FBF0F200FB1212851AB54200D9E3
:1048F0003546B1FBF0F200FB1210011924312A46B3
:104900004046FEF7B7FCA844A0682844A060D9F848
:1049100000002844C9F80000761B002E7FF467AF22
:10492000002062E72DE9F84F04468846164699466E
:104930000020C9F800002046FFF74DFE002806D1F0
:10494000E079002803D1A079800707D407204CE73D
:10495000525261417272416188000020A068811941
:1049600000D3002604F124004FF0010A0090ADE0CE
:104970002268A0685189B0FBF1F301FB1303002BFF
:104980007DD1B0FBF1F193785B1E1940CDB2F5B942
:1049900068B110466169FEF784FE002870D00128D6
:1049A0000DD0411C0ED06061216979B10FE0206902
:1049B0000028F2D100211046FEF773FEEDE7022039
:1049C000E07112E784F807A001200EE72061A079CA
:1049D00040060FD520680123A26940780099FEF7B0
:1049E000E6FB18B184F807A00120FEE6A07920F0CC
:1049F0004000A07161692068FEF700FDB0B100EBD6
:104A0000050B20684189B6FBF1F737B38178EA19C5
:104A10008A4200D94F1B40783B465A464146FEF732
:104A2000C6FB30B184F807A00120DEE60220E07169
:104A3000DBE6A069A0EB0B00B8420AD221684A89E4
:104A400000FB02810098FEF715FCA07920F04000E1
:104A5000A071206845897D432EE0A169594510D099
:104A6000D4E9021291420CD2407801235A460099AF
:104A7000FEF760FB28B184F807A00120B5E602E04C
:104A800027E0C4F818B02068A1684089B1FBF0F2B3
:104A900000FB1212851AB54200D93546B1FBF0F27F
:104AA00000FB1210204424302A464146FEF7E2FB68
:104AB000A07940F04000A071A844A0682844A060FC
:104AC000D9F800002844C9F80000761B002E7FF4B6
:104AD0004FAFD4E90201884200D9E060A07940F0EC
:104AE0002000A071002080E670B504462046FFF744
:104AF00072FD00280ED1A1798A060BD548060ED585
:104B00002068012304F124014078A269FEF74FFBDD
:104B100008B1012070BDA07920F04000A071E169CA
:104B20002068FEF7F7FB0028F4D1256AE87A40F008
:104B30002000E872207B2877A089000A6877E06867
:104B4000000CA877E068000EE87728462169FEF798
:104B500004FFFEF789FBA875010AE975010C2976A7
:104B6000000E68760020A874E874A07920F0200078
:104B7000A0712168012008712068BDE87040FEF72F
:104B8000E3BB10B504462046FFF7AEFF002806D170
:104B90002046FFF720FD002801D10021216010BD33
:104BA0002DE9F04704460D462046FFF714FD8046E8
:104BB0005FEA080000D061E5E0790028FBD1E068F9
:104BC000A84203D2A179890700D40546A16800272D
:104BD000A7604FF00109002D61D0206886784289D6
:104BE00056434FF0020A69B16A1E491EB2FBF6F243
:104BF000B1FBF6F39A4205D3701E8143A1606D1A92
:104C000061690BE0216941B90021FEF74AFD0146C7
:104C1000012905D0481C07D02161616159BB3EE0E4
:104C200084F807A0022029E584F80790012025E5F3
:104C3000A079800706D52068FEF733FD014629B923
:104C400035461AE02068FEF7E5FB0146481C09D00E
:104C5000012903D920684069884207D884F807A051
:104C600002200BE584F80790012007E56161A06848
:104C70003044A060AD1BB542DAD8A0682844A060DB
:104C800020684289B5FBF2F302FB13523AB1FEF7FA
:104C9000B5FBF0B121684989B5FBF1F10F18206827
:104CA000A1684289B1FBF2F302FB131131B3A2698F
:104CB000BA4223D0A17904F12405490611D54078E0
:104CC00001232946FEF773FA38B184F807900120D2
:104CD000D4E484F807A00220D0E4A07920F04000BA
:104CE000A071206801233A4640782946FEF722FA4F
:104CF00018B184F807900120C0E4A761D4E902014B
:104D0000884204D9E060A07940F02000A0714046BC
:104D1000B4E433B5ADF5057D0546002D07D000227E
:104D200086A984A8FFF7ADFA044624B126E009203D
:104D30000DF5077D30BD8498286081A8A86101A881
:104D4000E86128468699FFF70AFA04469CB9696922
:104D500041B1C87AC00604D58498FEF7EFFDA8607B
:104D600000E005243CB98498C088A880002128462A
:104D7000FEF7EAFC0446042C00D105240CB1002007
:104D800028602046D4E710B504462046FFF723FCF0
:104D9000002801D10021216010BD70B5ADF5047D62
:104DA00004460E462046FFF716FC002810D15EB1DF
:104DB00081A8A06101A8E06100212046FEF744FF20
:104DC0000025042807D008E000212046FEF7BCFC9F
:104DD0000DF5047D70BD256100200028F8D1314615
:104DE0002046FFF740F800212046FEF7FCFC04288F
:104DF000EED125610020EBE733B5ADF50D7D0D4615
:104E000000228DA984A8FFF73CFA044694B981A832
:104E10008A9001A88B9084A88D99FFF7A0F9044689
:104E200044B9899828B12DB1294684A8FFF71BF809
:104E300000E0062420460DF50F7D30BD2DE9F74F2B
:104E40008B461446002269462046FFF71AFA804630
:104E500026685FEA08005CD1D6E90409A9F10201DD
:104E6000884202D8CBF8000053E096F800A0002555
:104E7000BAF1010F04D0376A00200024B8B122E053
:104E8000022421463046FEF7C5FA411C03D0012812
:104E900004D030B106E04FF0010833E04FF00208D3
:104EA00030E06D1C7069641C8442EAD32AE0394604
:104EB0007F1C3046FEF72EFA80465FEA080021D1BB
:104EC00006F130047089BAF1020F0CD02178E27833
:104ED000637841EA0261A278120442EA0322114394
:104EE000090109D009E02178627851EA022100D154
:104EF0006D1CA41C801E02E06D1C241D001FB9F156
:104F00000109BBD13561707940F001007071CBF8B7
:104F100000504046BDE8FE8F70B504462046FFF7BE
:104F20005AFB0546280007D1E07908B1054603E0A1
:104F3000A079800700D40725F5BBD4E9020181429E
:104F40003FD9E060A17941F02001A17138B16169D8
:104F50002068FEF75FFA0646701C08D008E0216959
:104F60002068FEF76CFB05460020206115E0012556
:104F7000012E00D1022585B920684169B1420CD9C2
:104F80006FF070426169FEF7C4FA0546280004D14B
:104F900031462068FEF753FB054695B9A0794006D7
:104FA0000FD52068012304F124014078A269FEF79F
:104FB000FEF810B1012504E005E0A07920F04000E2
:104FC000A07105B1E571284670BD71B5ADF5157DCF
:104FD0000025012295A98CA8FFF753F90446E4BBEC
:104FE00080A89290CDF84CD28CA89599FFF7B7F88D
:104FF000044694BB919E2EB1F07AC00700D00724DE
:1050000014B120E00624FBE731468C98FEF796FCAD
:105010000546C5B1F07AC00615D524228CA983A80F
:10502000FEF728F98595022183A8FEF78DFB04463B
:105030004CB9002183A8FEF707FE044604B90724F3
:10504000042C00D1002444B98CA8FEF7DDFE0446F0
:105050003CB935B129468C9800E007E0FEF7EFFA3D
:1050600004461CB98C98FEF76FF904460DF5167DC1
:10507000204670BD2DE9F14FADF50E7DFEF7F4F839
:10508000064601228EA984A8FFF7FBF804462000FB
:105090007ED181A88A9001A88B9084A88E99FFF771
:1050A0005EF80446200000D10824042C70D10021B1
:1050B0008498FEF7F6FA80460024B8F1000F00D17C
:1050C0000724B8F1010F00D10224B8F1FF3F00D14D
:1050D00001241CB98498FEF7F3F804464FF0100A37
:1050E0004FF00109CCBB41468498FEF787F983460F
:1050F000849D30358498002142892846FEF7C3F804
:105100000B2220212846FEF7BEF82E272F7085F8A7
:105110000BA0AE75300AE875300C2876300E687634
:1051200041462846FEF719FC05F1200020222946B9
:105130008D90FEF79FF885F8217086998498007805
:10514000032804D18498406A884200D100218D98B8
:10515000FEF703FC8498877816E017E08498C0F87F
:105160002CB00BF1010B849880F804908498FEF722
:10517000A7F80446200009D18498002142892846D6
:10518000FEF781F87F1EFFB2002FE7D12CB900E0B7
:105190001DE084A8FEF7B1FD044624B14146849881
:1051A000FEF74DFA13E0899880F80BA08675310A56
:1051B000C175310C0176310E41764146FEF7CDFBCB
:1051C000849880F804908498FEF7BEF804460DF5A4
:1051D0000F7D2046BDE8F08F37B5ADF50C7D0C4650
:1051E000154601228CA983A8FFF74BF8002818D197
:1051F00080A88990CDF828D283A88C99FEF7AFFFBC
:1052000000280ED1889868B105F02702C17A1440B1
:1052100091430C43C4728399012008718398FEF76F
:1052200093F808E6062006E673B5ADF51C7D01226D
:105230009CA993A8FFF725F80446002C6DD19398FC
:105240008A9081A8999001A89A9093A89C99FEF7BA
:1052500086FF0446002C60D19898A8B19899152231
:105260000B3184A8FEF706F8242293A98AA8FEF73A
:1052700001F89DA8FEF7A8FF002807DB8AA89D99E2
:10528000FEF76DFF044602E0042446E00B2404B957
:105290000824042C41D18AA8FEF72FFD0446E4BB64
:1052A0008F9D13220DF2122105F10D00FDF7E2FF93
:1052B0009DF8100240F02000E872939801260671D4
:1052C000E87AC0061FD58C99959888421BD029464C
:1052D0009398FEF733FB01469398FEF78FF801464B
:1052E00039B19398FEF716F804469398503014B1EC
:1052F00009E0022407E041782E2904D18C99FEF7B9
:105300002CFB9398067144B993A8FEF77DFD0446E3
:105310001CB99398FEF718F804460DF51E7D20463B
:1053200070BD13B5ADF50C7D0C4601228CA983A888
:10533000FEF7A7FF00281BD180A88990CDF828D2BE
:1053400083A88C99FEF70BFF002811D1889890B1A3
:10535000A1798175E188090AC17521790176A18851
:10536000090A41768399012008718398FDF7ECFFC3
:105370000DF50E7D10BD0620FAE72DE9F74F88B038
:1053800090460998012802D913200BB022E708A8FB
:10539000FEF71AFF002801DA0B20F6E7FE4951F864
:1053A000206056B100213170C0B205900598FDF71C
:1053B000B7FEC10703D00320E7E70C20E5E740076D
:1053C00001D50A20E1E706F10A0202210598FDF75E
:1053D0002DFF30B97089B0F5805F02D8B0F5007F3D
:1053E00001D20120D1E702AA01210598FDF71EFF95
:1053F00010B90298802801D20120C6E7099911B19D
:105400004FF0000A01E04FF03F0AA0EB0A010291C1
:10541000A8F1010018EA000F01D04FF00008B8F120
:10542000000F13D170894FF4FA62400AB2FBF0F01A
:10543000B1FBF0F20020D94B00E0401C33F81050D3
:105440009542FAD8D54A163232F81080B8F5007F66
:1054500002D37089B8FBF0F8B8F1000F01D14FF01A
:105460000108B8F1800F01D94FF08008B1FBF8F0C6
:10547000012740F6F672904200D302274FF6F672EB
:10548000904200D30327032F1BD0012F24D04200CA
:10549000121D7089521E0244B2FBF0F90125AA03C5
:1054A000B2FBF0F001900AEB050B0BEB0900019A3F
:1054B000841804EB0800A0EB0A00884212D90E20E1
:1054C00063E77289072303EB80001044B0FBF2F915
:1054D000202500200190E6E700EB4000401C420838
:1054E000D21CD6E703AA03210598FDF79FFE20B939
:1054F000039810B1B0F5004F01D901200390039833
:105500002118491E401E8143081B0390032F0CD015
:1055100081440298411BA1EB09020199511AB1FB88
:10552000F8F10491022F03D007E005448344F0E72B
:10553000049940F6F672914206D3032F06D10499DE
:105540004FF6F672914201D20E201EE7032F02D0D1
:10555000012F02D006E00C240AE0B0F5803F01D212
:10556000012405E0B0F5803F01D2042400E00624C8
:10557000099810B1F020069039E0728906F13000E8
:1055800000210790FDF77FFE06F5F77001214170BD
:1055900081700022C2700471FE214171029943F6AC
:1055A000C1635144B1FBF3F103913F2343EA9104FA
:1055B0008471C171037242728272C2720299017364
:1055C0000A0A42730A0C8273090EC173552086F8C9
:1055D0002E02AA2086F82F0201230022079905989F
:1055E000FDF7E5FD08B10120CFE6F820069006F1B1
:1055F0003004728900212046FDF745FE0B2268A188
:105600002046FDF737FE7089E072000A207384F8A7
:105610000D80A573280AE07301202074032F0BD09E
:1056200040026074000AA0740298B0F5803F05D271
:10563000E074000A20750AE00020F2E704F8200F69
:10564000010A6170010CA170000EE070203C069808
:1056500060753F20207600206076FF21A176E076FD
:1056600084F81CA04FEA1A2060774FEA1A40A0770E
:105670004FEA1A60E077FDF7F7FD039080222921B9
:10568000032F24D016346074030AA374030CE3744C
:10569000000E207584F800904FEA19206070A27304
:1056A0002174163C132241A104F12B00FDF7E2FD09
:1056B000552084F8FE01AA2084F8FF0101235246F8
:1056C00021460598FDF773FD60B301205DE62534A2
:1056D000A077030AE377030C84F82030000E84F8E7
:1056E000210004F8019C4FEA192020704FEA19406C
:1056F00060704FEA1960A0700220E07100202072F3
:105700006072A0720123E372207306236373A07397
:10571000E2766177253C132229A104F14700FDF7C9
:10572000A9FDC5E7032F06D101230AF10602214690
:105730000598FDF73CFD5D464FF0000B7289002196
:105740002046FDF7A0FD06980390032F12D0012FED
:105750000ED06FF0FF010143039121700398000AFE
:1057600060700398000CA0700398000EE07039E0A0
:105770001849F0E760F0FF00039020700398000ADA
:1057800060700398000CA0700398000EE070FF207A
:1057900020716071A0711FE08C000020D65F0008AE
:1057A000EBFE904D53444F53352E30004E4F204E5C
:1057B000414D45202020204641542020202020001B
:1057C0004E4F204E414D452020202046415433323B
:1057D0002020200000FFFF00E07120726072A072A4
:1057E0000F20E0722A466D1C012321460598FDF723
:1057F000DEFC08B10120C8E5728900212046FDF7D2
:1058000042FD012003900CE02A466D1C0123214635
:105810000598FDF7CCFC08B10120B6E50398401CC3
:10582000039003984845EFD30BF1010BBBF1000F38
:1058300084D0032F01D0DDF804802A466D1C01239B
:1058400021460598FDF7B3FC08B101209DE5B8F1AC
:105850000108F2D1032F3AD15220207060706120EC
:10586000A0704121E170722284F8E42184F8E521DE
:1058700084F8E61184F8E7010498401E84F8E801F2
:10588000010A84F8E911010C84F8EA11000E84F889
:10589000EB01022084F8EC01002084F8ED0184F88B
:1058A000EE0184F8EF01552084F8FE01AA2084F867
:1058B000FF0101230AF1010221460598FDF777FC5B
:1058C00001230AF1070221460598FDF770FC00222A
:1058D00011460598FDF7AAFC08B1012055E5002006
:1058E00053E52DE9FC410746904600253C464E1EF7
:1058F0000FE06B46012201A94046FEF755FF0098D4
:10590000012808D19DF8040004F8010B6D1C0A2839
:1059100001D0B542EDDB0020207015B13846BDE85E
:10592000FC810020FBE738B504466068002816DBE0
:10593000451C204401733D2D0DDB6B462A4604F1C6
:105940000C012068FEF7EEFF0098A84201D1002567
:1059500001E04FF0FF356560A068401CA06038BDD5
:1059600000B595B00291002103910491014602A86F
:10597000FFF7D9FF039800280DDBDDE9020201AB38
:1059800005A9FEF7CFFF30B901990398884202D1EB
:10599000049815B000BD4FF0FF30FAE710B594B091
:1059A0000446019100200290039003E0641C01A8CA
:1059B000FFF7B9FF21780029F8D1029800280DDB04
:1059C000DDE901026B4604A9FEF7ACFF30B900998E
:1059D0000298884202D1039814B010BD4FF0FF30F6
:1059E000FAE70FB42DE9F0479AB001904FF00008A4
:1059F000CDF80880CDF80C8024A8199014AF239816
:105A000010F8011B2390002977D0252903D001A885
:105A1000FFF789FFF3E700252E4610F8011B2390BE
:105A2000302902D02D2905D012E0012510F8011BE4
:105A300023900DE0022510F8011B239008E006EBEF
:105A4000860001EB4006303E239810F8011B23909E
:105A5000A1F130000928F2D96C2901D04C2905D1D7
:105A600045F00405239810F8011B2390002944D029
:105A70000A46A2F16100192801D8203AD2B24F2A71
:105A800046D006DC422A41D0432A37D0442A06D1E8
:105A900040E0532A07D0552A3CD0582A3CD001A8D0
:105AA000FFF741FFABE7199850F8049B19900024C9
:105AB00000E0641C19F804000028FAD1A80704D5F6
:105AC0000DE0202101A8FFF72EFF2046641CB04204
:105AD000F7D304E009F1010901A8FFF724FF99F8C1
